{
  "_format": "hh-sol-artifact-1",
  "contractName": "NpOne",
  "sourceName": "contracts/NpOne.sol",
  "abi": [
    {
      "inputs": [],
      "stateMutability": "nonpayable",
      "type": "constructor"
    },
    {
      "inputs": [],
      "name": "helloWorld",
      "outputs": [
        {
          "internalType": "string",
          "name": "",
          "type": "string"
        }
      ],
      "stateMutability": "view",
      "type": "function"
    }
  ],
  "bytecode": "0x608060405234801561001057600080fd5b5060408051808201909152601781527f4465706c6f7965643a2048656c6c6f2c20576f726c6421000000000000000000602082015261004e90610053565b61011f565b61009a8160405160240161006791906100d1565b60408051601f198184030181529190526020810180516001600160e01b0390811663104c13eb60e21b1790915261009d16565b50565b61009a816100b060201b6100781760201c565b60006a636f6e736f6c652e6c6f679050600080835160208501845afa505050565b602081526000825180602084015260005b818110156100ff57602081860181015160408684010152016100e2565b506000604082850101526040601f19601f83011684010191505092915050565b6101748061012e6000396000f3fe608060405234801561001057600080fd5b506004361061002b5760003560e01c8063c605f76c14610030575b600080fd5b604080518082018252600d81527f48656c6c6f2c20576f726c6421000000000000000000000000000000000000006020820152905161006f91906100a3565b60405180910390f35b60006a636f6e736f6c652e6c6f679050600080835160208501845afa505050565b6100a161010f565b565b602081526000825180602084015260005b818110156100d157602081860181015160408684010152016100b4565b5060006040828501015260407fffffffffffffffffffffffffffffffffffffffffffffffffffffffffffffffe0601f83011684010191505092915050565b7f4e487b7100000000000000000000000000000000000000000000000000000000600052605160045260246000fdfea264697066735822122067f414ed98f44c4730f040b1f5ecb25021bde542dc75933e28f105386a7f396564736f6c634300081b0033",
  "linkReferences": {},
  "deployedLinkReferences": {}
}